{
  "contractName": "TweetController",
  "abi": [
    {
      "inputs": [],
      "name": "ownerAddr",
      "outputs": [
        {
          "internalType": "address",
          "name": "",
          "type": "address"
        }
      ],
      "stateMutability": "view",
      "type": "function",
      "constant": true
    },
    {
      "inputs": [
        {
          "internalType": "address",
          "name": "_managerAddr",
          "type": "address"
        }
      ],
      "name": "setManagerAddr",
      "outputs": [],
      "stateMutability": "nonpayable",
      "type": "function"
    },
    {
      "inputs": [
        {
          "internalType": "address",
          "name": "_newOwner",
          "type": "address"
        }
      ],
      "name": "transferOwnership",
      "outputs": [],
      "stateMutability": "nonpayable",
      "type": "function"
    },
    {
      "inputs": [
        {
          "internalType": "string",
          "name": "_text",
          "type": "string"
        },
        {
          "internalType": "string",
          "name": "_postHash",
          "type": "string"
        }
      ],
      "name": "createTweet",
      "outputs": [
        {
          "internalType": "uint256",
          "name": "",
          "type": "uint256"
        }
      ],
      "stateMutability": "nonpayable",
      "type": "function"
    },
    {
      "inputs": [
        {
          "internalType": "uint256",
          "name": "_id",
          "type": "uint256"
        }
      ],
      "name": "tipPost",
      "outputs": [],
      "stateMutability": "payable",
      "type": "function",
      "payable": true
    }
  ],
  "bytecode": "0x608060405234801561001057600080fd5b50336000806101000a81548173ffffffffffffffffffffffffffffffffffffffff021916908373ffffffffffffffffffffffffffffffffffffffff16021790555061103f806100606000396000f3fe60806040526004361061004a5760003560e01c806374d3c1f81461004f5780637978b2311461006b5780638cd14d30146100945780639c675eaa146100d1578063f2fde38b146100fc575b600080fd5b610069600480360381019061006491906109b8565b610125565b005b34801561007757600080fd5b50610092600480360381019061008d9190610a43565b610597565b005b3480156100a057600080fd5b506100bb60048036038101906100b69190610bb6565b610633565b6040516100c89190610c3d565b60405180910390f35b3480156100dd57600080fd5b506100e6610876565b6040516100f39190610c67565b60405180910390f35b34801561010857600080fd5b50610123600480360381019061011e9190610a43565b61089a565b005b6000600160009054906101000a900473ffffffffffffffffffffffffffffffffffffffff16905060008173ffffffffffffffffffffffffffffffffffffffff1663bf40fac16040518163ffffffff1660e01b815260040161018590610cdf565b602060405180830381865afa1580156101a2573d6000803e3d6000fd5b505050506040513d601f19601f820116820180604052508101906101c69190610d14565b9050600081905060008411801561024b57508073ffffffffffffffffffffffffffffffffffffffff1663eb4fdc3f6040518163ffffffff1660e01b8152600401602060405180830381865afa158015610223573d6000803e3d6000fd5b505050506040513d601f19601f820116820180604052508101906102479190610d56565b8411155b61025457600080fd5b6000806000806000808673ffffffffffffffffffffffffffffffffffffffff1663e8d857b08b6040518263ffffffff1660e01b81526004016102969190610c3d565b600060405180830381865afa1580156102b3573d6000803e3d6000fd5b505050506040513d6000823e3d601f19601f820116820180604052508101906102dc9190610e26565b95509550955095509550955060008973ffffffffffffffffffffffffffffffffffffffff1663bf40fac16040518163ffffffff1660e01b815260040161032190610f37565b602060405180830381865afa15801561033e573d6000803e3d6000fd5b505050506040513d601f19601f820116820180604052508101906103629190610d14565b9050600081905060008173ffffffffffffffffffffffffffffffffffffffff166382d38954336040518263ffffffff1660e01b81526004016103a49190610c67565b602060405180830381865afa1580156103c1573d6000803e3d6000fd5b505050506040513d601f19601f820116820180604052508101906103e59190610d56565b141580156104995750600073ffffffffffffffffffffffffffffffffffffffff168173ffffffffffffffffffffffffffffffffffffffff16639ecdc1d2886040518263ffffffff1660e01b815260040161043f9190610c3d565b602060405180830381865afa15801561045c573d6000803e3d6000fd5b505050506040513d601f19601f820116820180604052508101906104809190610d14565b73ffffffffffffffffffffffffffffffffffffffff1614155b6104a257600080fd5b8873ffffffffffffffffffffffffffffffffffffffff16636595c8bc348e8473ffffffffffffffffffffffffffffffffffffffff16639ecdc1d28b6040518263ffffffff1660e01b81526004016104f99190610c3d565b602060405180830381865afa158015610516573d6000803e3d6000fd5b505050506040513d601f19601f8201168201806040525081019061053a9190610d14565b6040518463ffffffff1660e01b8152600401610557929190610f57565b6000604051808303818588803b15801561057057600080fd5b505af1158015610584573d6000803e3d6000fd5b5050505050505050505050505050505050565b60008054906101000a900473ffffffffffffffffffffffffffffffffffffffff1673ffffffffffffffffffffffffffffffffffffffff163373ffffffffffffffffffffffffffffffffffffffff16146105ef57600080fd5b80600160006101000a81548173ffffffffffffffffffffffffffffffffffffffff021916908373ffffffffffffffffffffffffffffffffffffffff16021790555050565b600080600160009054906101000a900473ffffffffffffffffffffffffffffffffffffffff16905060008173ffffffffffffffffffffffffffffffffffffffff1663bf40fac16040518163ffffffff1660e01b815260040161069490610f37565b602060405180830381865afa1580156106b1573d6000803e3d6000fd5b505050506040513d601f19601f820116820180604052508101906106d59190610d14565b9050600081905060008173ffffffffffffffffffffffffffffffffffffffff166382d38954336040518263ffffffff1660e01b81526004016107179190610c67565b602060405180830381865afa158015610734573d6000803e3d6000fd5b505050506040513d601f19601f820116820180604052508101906107589190610d56565b90506000810361076757600080fd5b60008473ffffffffffffffffffffffffffffffffffffffff1663bf40fac16040518163ffffffff1660e01b81526004016107a090610cdf565b602060405180830381865afa1580156107bd573d6000803e3d6000fd5b505050506040513d601f19601f820116820180604052508101906107e19190610d14565b905060008190508073ffffffffffffffffffffffffffffffffffffffff166373c91c93848b8b6040518463ffffffff1660e01b815260040161082593929190610fc4565b6020604051808303816000875af1158015610844573d6000803e3d6000fd5b505050506040513d601f19601f820116820180604052508101906108689190610d56565b965050505050505092915050565b60008054906101000a900473ffffffffffffffffffffffffffffffffffffffff1681565b60008054906101000a900473ffffffffffffffffffffffffffffffffffffffff1673ffffffffffffffffffffffffffffffffffffffff163373ffffffffffffffffffffffffffffffffffffffff16146108f257600080fd5b600073ffffffffffffffffffffffffffffffffffffffff168173ffffffffffffffffffffffffffffffffffffffff160361092b57600080fd5b806000806101000a81548173ffffffffffffffffffffffffffffffffffffffff021916908373ffffffffffffffffffffffffffffffffffffffff16021790555050565b6000604051905090565b600080fd5b600080fd5b6000819050919050565b61099581610982565b81146109a057600080fd5b50565b6000813590506109b28161098c565b92915050565b6000602082840312156109ce576109cd610978565b5b60006109dc848285016109a3565b91505092915050565b600073ffffffffffffffffffffffffffffffffffffffff82169050919050565b6000610a10826109e5565b9050919050565b610a2081610a05565b8114610a2b57600080fd5b50565b600081359050610a3d81610a17565b92915050565b600060208284031215610a5957610a58610978565b5b6000610a6784828501610a2e565b91505092915050565b600080fd5b600080fd5b6000601f19601f8301169050919050565b7f4e487b7100000000000000000000000000000000000000000000000000000000600052604160045260246000fd5b610ac382610a7a565b810181811067ffffffffffffffff82111715610ae257610ae1610a8b565b5b80604052505050565b6000610af561096e565b9050610b018282610aba565b919050565b600067ffffffffffffffff821115610b2157610b20610a8b565b5b610b2a82610a7a565b9050602081019050919050565b82818337600083830152505050565b6000610b59610b5484610b06565b610aeb565b905082815260208101848484011115610b7557610b74610a75565b5b610b80848285610b37565b509392505050565b600082601f830112610b9d57610b9c610a70565b5b8135610bad848260208601610b46565b91505092915050565b60008060408385031215610bcd57610bcc610978565b5b600083013567ffffffffffffffff811115610beb57610bea61097d565b5b610bf785828601610b88565b925050602083013567ffffffffffffffff811115610c1857610c1761097d565b5b610c2485828601610b88565b9150509250929050565b610c3781610982565b82525050565b6000602082019050610c526000830184610c2e565b92915050565b610c6181610a05565b82525050565b6000602082019050610c7c6000830184610c58565b92915050565b600082825260208201905092915050565b7f547765657453746f726167650000000000000000000000000000000000000000600082015250565b6000610cc9600c83610c82565b9150610cd482610c93565b602082019050919050565b60006020820190508181036000830152610cf881610cbc565b9050919050565b600081519050610d0e81610a17565b92915050565b600060208284031215610d2a57610d29610978565b5b6000610d3884828501610cff565b91505092915050565b600081519050610d508161098c565b92915050565b600060208284031215610d6c57610d6b610978565b5b6000610d7a84828501610d41565b91505092915050565b60005b83811015610da1578082015181840152602081019050610d86565b83811115610db0576000848401525b50505050565b6000610dc9610dc484610b06565b610aeb565b905082815260208101848484011115610de557610de4610a75565b5b610df0848285610d83565b509392505050565b600082601f830112610e0d57610e0c610a70565b5b8151610e1d848260208601610db6565b91505092915050565b60008060008060008060c08789031215610e4357610e42610978565b5b6000610e5189828a01610d41565b965050602087015167ffffffffffffffff811115610e7257610e7161097d565b5b610e7e89828a01610df8565b9550506040610e8f89828a01610d41565b9450506060610ea089828a01610d41565b935050608087015167ffffffffffffffff811115610ec157610ec061097d565b5b610ecd89828a01610df8565b92505060a0610ede89828a01610d41565b9150509295509295509295565b7f5573657253746f72616765000000000000000000000000000000000000000000600082015250565b6000610f21600b83610c82565b9150610f2c82610eeb565b602082019050919050565b60006020820190508181036000830152610f5081610f14565b9050919050565b6000604082019050610f6c6000830185610c2e565b610f796020830184610c58565b9392505050565b600081519050919050565b6000610f9682610f80565b610fa08185610c82565b9350610fb0818560208601610d83565b610fb981610a7a565b840191505092915050565b6000606082019050610fd96000830186610c2e565b8181036020830152610feb8185610f8b565b90508181036040830152610fff8184610f8b565b905094935050505056fea26469706673582212204e8e3048000780798efdbe2ec590d1362911312b6fa499bc7965af0de6257b0864736f6c634300080d0033",
  "immutableReferences": {},
  "source": "pragma solidity >=0.4.22 <0.9.0;\r\n\r\nimport \"../helpers/BaseController.sol\";\r\nimport \"../ContractManager.sol\";\r\nimport \"./TweetStorage.sol\";\r\nimport \"../users/UserStorage.sol\";\r\n\r\ncontract TweetController is BaseController {\r\n    function createTweet(string memory _text, string memory _postHash)\r\n        public\r\n        returns (uint256)\r\n    {\r\n        ContractManager _manager = ContractManager(managerAddr);\r\n\r\n        address _userStorageAddr = _manager.getAddress(\"UserStorage\");\r\n        UserStorage _userStorage = UserStorage(_userStorageAddr);\r\n        uint256 _userId = _userStorage.addresses(msg.sender);\r\n\r\n        require(_userId != 0);\r\n\r\n        address _tweetStorageAddr = _manager.getAddress(\"TweetStorage\");\r\n        TweetStorage _tweetStorage = TweetStorage(_tweetStorageAddr);\r\n\r\n        return _tweetStorage.createTweet(_userId, _text, _postHash);\r\n    }\r\n\r\n    function tipPost(uint256 _id) public payable {\r\n        ContractManager _manager = ContractManager(managerAddr);\r\n\r\n        address _tweetStorageAddr = _manager.getAddress(\"TweetStorage\");\r\n        TweetStorage _tweetStorage = TweetStorage(_tweetStorageAddr);\r\n\r\n        require(_id > 0 && _id <= _tweetStorage.getNumTweets());\r\n\r\n        (\r\n            uint256 id,\r\n            string memory text,\r\n            uint256 userId,\r\n            uint256 postedAt,\r\n            string memory postHash,\r\n            uint256 tipAmount\r\n        ) = _tweetStorage.tweets(_id);\r\n\r\n        address _userStorageAddr = _manager.getAddress(\"UserStorage\");\r\n        UserStorage _userStorage = UserStorage(_userStorageAddr);\r\n\r\n        require(\r\n            _userStorage.addresses(msg.sender) != 0 &&\r\n                _userStorage.uidtoaddr(userId) != address(0)\r\n        );\r\n\r\n        _tweetStorage.tipPost{value: msg.value}(\r\n            _id,\r\n            _userStorage.uidtoaddr(userId)\r\n        );\r\n    }\r\n}\r\n",
  "sourcePath": "U:\\Ethereum\\ethegram\\contracts\\tweets\\TweetController.sol",
  "compiler": {
    "name": "solc",
    "version": "0.8.13+commit.abaa5c0e.Emscripten.clang"
  },
  "schemaVersion": "3.4.6",
  "updatedAt": "2022-05-25T09:45:04.585Z",
  "networkType": "ethereum",
  "devdoc": {
    "kind": "dev",
    "methods": {},
    "version": 1
  },
  "userdoc": {
    "kind": "user",
    "methods": {},
    "version": 1
  }
}