{
  "contractName": "UserStorage",
  "abi": [
    {
      "inputs": [
        {
          "internalType": "address",
          "name": "",
          "type": "address"
        }
      ],
      "name": "addresses",
      "outputs": [
        {
          "internalType": "uint256",
          "name": "",
          "type": "uint256"
        }
      ],
      "stateMutability": "view",
      "type": "function",
      "constant": true
    },
    {
      "inputs": [],
      "name": "controllerAddr",
      "outputs": [
        {
          "internalType": "address",
          "name": "",
          "type": "address"
        }
      ],
      "stateMutability": "view",
      "type": "function",
      "constant": true
    },
    {
      "inputs": [],
      "name": "ownerAddr",
      "outputs": [
        {
          "internalType": "address",
          "name": "",
          "type": "address"
        }
      ],
      "stateMutability": "view",
      "type": "function",
      "constant": true
    },
    {
      "inputs": [
        {
          "internalType": "uint256",
          "name": "",
          "type": "uint256"
        }
      ],
      "name": "profiles",
      "outputs": [
        {
          "internalType": "uint256",
          "name": "id",
          "type": "uint256"
        },
        {
          "internalType": "bytes32",
          "name": "username",
          "type": "bytes32"
        },
        {
          "internalType": "bytes32",
          "name": "firstName",
          "type": "bytes32"
        },
        {
          "internalType": "bytes32",
          "name": "lastName",
          "type": "bytes32"
        },
        {
          "internalType": "string",
          "name": "bio",
          "type": "string"
        },
        {
          "internalType": "string",
          "name": "gravatarEmail",
          "type": "string"
        },
        {
          "internalType": "string",
          "name": "profileHash",
          "type": "string"
        }
      ],
      "stateMutability": "view",
      "type": "function",
      "constant": true
    },
    {
      "inputs": [
        {
          "internalType": "address",
          "name": "_controllerAddr",
          "type": "address"
        }
      ],
      "name": "setControllerAddr",
      "outputs": [],
      "stateMutability": "nonpayable",
      "type": "function"
    },
    {
      "inputs": [
        {
          "internalType": "address",
          "name": "_newOwner",
          "type": "address"
        }
      ],
      "name": "transferOwnership",
      "outputs": [],
      "stateMutability": "nonpayable",
      "type": "function"
    },
    {
      "inputs": [
        {
          "internalType": "uint256",
          "name": "",
          "type": "uint256"
        }
      ],
      "name": "uidtoaddr",
      "outputs": [
        {
          "internalType": "address",
          "name": "",
          "type": "address"
        }
      ],
      "stateMutability": "view",
      "type": "function",
      "constant": true
    },
    {
      "inputs": [
        {
          "internalType": "bytes32",
          "name": "",
          "type": "bytes32"
        }
      ],
      "name": "usernames",
      "outputs": [
        {
          "internalType": "uint256",
          "name": "",
          "type": "uint256"
        }
      ],
      "stateMutability": "view",
      "type": "function",
      "constant": true
    },
    {
      "inputs": [
        {
          "internalType": "address",
          "name": "_address",
          "type": "address"
        },
        {
          "internalType": "bytes32",
          "name": "_username",
          "type": "bytes32"
        },
        {
          "internalType": "bytes32",
          "name": "_firstName",
          "type": "bytes32"
        },
        {
          "internalType": "bytes32",
          "name": "_lastName",
          "type": "bytes32"
        },
        {
          "internalType": "string",
          "name": "_bio",
          "type": "string"
        },
        {
          "internalType": "string",
          "name": "_gravatarEmail",
          "type": "string"
        },
        {
          "internalType": "string",
          "name": "_profileHash",
          "type": "string"
        }
      ],
      "name": "createUser",
      "outputs": [
        {
          "internalType": "uint256",
          "name": "",
          "type": "uint256"
        }
      ],
      "stateMutability": "nonpayable",
      "type": "function"
    }
  ],
  "bytecode": "0x6080604052600060065534801561001557600080fd5b50336000806101000a81548173ffffffffffffffffffffffffffffffffffffffff021916908373ffffffffffffffffffffffffffffffffffffffff160217905550610ebd806100656000396000f3fe608060405234801561001057600080fd5b50600436106100935760003560e01c80639ecdc1d2116100665780639ecdc1d214610132578063c36fe3d614610162578063ec4d88d714610198578063ee255c57146101c8578063f2fde38b146101e657610093565b80636981fa7d146100985780636ae2289c146100b457806382d38954146100e45780639c675eaa14610114575b600080fd5b6100b260048036038101906100ad9190610912565b610202565b005b6100ce60048036038101906100c99190610abb565b61029e565b6040516100db9190610bca565b60405180910390f35b6100fe60048036038101906100f99190610912565b6104a2565b60405161010b9190610bca565b60405180910390f35b61011c6104ba565b6040516101299190610bf4565b60405180910390f35b61014c60048036038101906101479190610c3b565b6104de565b6040516101599190610bf4565b60405180910390f35b61017c60048036038101906101779190610c3b565b610511565b60405161018f9796959493929190610cff565b60405180910390f35b6101b260048036038101906101ad9190610d83565b6106eb565b6040516101bf9190610bca565b60405180910390f35b6101d0610703565b6040516101dd9190610bf4565b60405180910390f35b61020060048036038101906101fb9190610912565b610729565b005b60008054906101000a900473ffffffffffffffffffffffffffffffffffffffff1673ffffffffffffffffffffffffffffffffffffffff163373ffffffffffffffffffffffffffffffffffffffff161461025a57600080fd5b80600160006101000a81548173ffffffffffffffffffffffffffffffffffffffff021916908373ffffffffffffffffffffffffffffffffffffffff16021790555050565b6000600160009054906101000a900473ffffffffffffffffffffffffffffffffffffffff1673ffffffffffffffffffffffffffffffffffffffff163373ffffffffffffffffffffffffffffffffffffffff16146102fa57600080fd5b6006600081548092919061030d90610ddf565b91905055506040518060e001604052806006548152602001888152602001878152602001868152602001858152602001848152602001838152506002600060065481526020019081526020016000206000820151816000015560208201518160010155604082015181600201556060820151816003015560808201518160040190805190602001906103a09291906107fd565b5060a08201518160050190805190602001906103bd9291906107fd565b5060c08201518160060190805190602001906103da9291906107fd565b50905050600654600360008a73ffffffffffffffffffffffffffffffffffffffff1673ffffffffffffffffffffffffffffffffffffffff1681526020019081526020016000208190555060065460046000898152602001908152602001600020819055508760056000600654815260200190815260200160002060006101000a81548173ffffffffffffffffffffffffffffffffffffffff021916908373ffffffffffffffffffffffffffffffffffffffff1602179055506006549050979650505050505050565b60036020528060005260406000206000915090505481565b60008054906101000a900473ffffffffffffffffffffffffffffffffffffffff1681565b60056020528060005260406000206000915054906101000a900473ffffffffffffffffffffffffffffffffffffffff1681565b600260205280600052604060002060009150905080600001549080600101549080600201549080600301549080600401805461054c90610e56565b80601f016020809104026020016040519081016040528092919081815260200182805461057890610e56565b80156105c55780601f1061059a576101008083540402835291602001916105c5565b820191906000526020600020905b8154815290600101906020018083116105a857829003601f168201915b5050505050908060050180546105da90610e56565b80601f016020809104026020016040519081016040528092919081815260200182805461060690610e56565b80156106535780601f1061062857610100808354040283529160200191610653565b820191906000526020600020905b81548152906001019060200180831161063657829003601f168201915b50505050509080600601805461066890610e56565b80601f016020809104026020016040519081016040528092919081815260200182805461069490610e56565b80156106e15780601f106106b6576101008083540402835291602001916106e1565b820191906000526020600020905b8154815290600101906020018083116106c457829003601f168201915b5050505050905087565b60046020528060005260406000206000915090505481565b600160009054906101000a900473ffffffffffffffffffffffffffffffffffffffff1681565b60008054906101000a900473ffffffffffffffffffffffffffffffffffffffff1673ffffffffffffffffffffffffffffffffffffffff163373ffffffffffffffffffffffffffffffffffffffff161461078157600080fd5b600073ffffffffffffffffffffffffffffffffffffffff168173ffffffffffffffffffffffffffffffffffffffff16036107ba57600080fd5b806000806101000a81548173ffffffffffffffffffffffffffffffffffffffff021916908373ffffffffffffffffffffffffffffffffffffffff16021790555050565b82805461080990610e56565b90600052602060002090601f01602090048101928261082b5760008555610872565b82601f1061084457805160ff1916838001178555610872565b82800160010185558215610872579182015b82811115610871578251825591602001919060010190610856565b5b50905061087f9190610883565b5090565b5b8082111561089c576000816000905550600101610884565b5090565b6000604051905090565b600080fd5b600080fd5b600073ffffffffffffffffffffffffffffffffffffffff82169050919050565b60006108df826108b4565b9050919050565b6108ef816108d4565b81146108fa57600080fd5b50565b60008135905061090c816108e6565b92915050565b600060208284031215610928576109276108aa565b5b6000610936848285016108fd565b91505092915050565b6000819050919050565b6109528161093f565b811461095d57600080fd5b50565b60008135905061096f81610949565b92915050565b600080fd5b600080fd5b6000601f19601f8301169050919050565b7f4e487b7100000000000000000000000000000000000000000000000000000000600052604160045260246000fd5b6109c88261097f565b810181811067ffffffffffffffff821117156109e7576109e6610990565b5b80604052505050565b60006109fa6108a0565b9050610a0682826109bf565b919050565b600067ffffffffffffffff821115610a2657610a25610990565b5b610a2f8261097f565b9050602081019050919050565b82818337600083830152505050565b6000610a5e610a5984610a0b565b6109f0565b905082815260208101848484011115610a7a57610a7961097a565b5b610a85848285610a3c565b509392505050565b600082601f830112610aa257610aa1610975565b5b8135610ab2848260208601610a4b565b91505092915050565b600080600080600080600060e0888a031215610ada57610ad96108aa565b5b6000610ae88a828b016108fd565b9750506020610af98a828b01610960565b9650506040610b0a8a828b01610960565b9550506060610b1b8a828b01610960565b945050608088013567ffffffffffffffff811115610b3c57610b3b6108af565b5b610b488a828b01610a8d565b93505060a088013567ffffffffffffffff811115610b6957610b686108af565b5b610b758a828b01610a8d565b92505060c088013567ffffffffffffffff811115610b9657610b956108af565b5b610ba28a828b01610a8d565b91505092959891949750929550565b6000819050919050565b610bc481610bb1565b82525050565b6000602082019050610bdf6000830184610bbb565b92915050565b610bee816108d4565b82525050565b6000602082019050610c096000830184610be5565b92915050565b610c1881610bb1565b8114610c2357600080fd5b50565b600081359050610c3581610c0f565b92915050565b600060208284031215610c5157610c506108aa565b5b6000610c5f84828501610c26565b91505092915050565b610c718161093f565b82525050565b600081519050919050565b600082825260208201905092915050565b60005b83811015610cb1578082015181840152602081019050610c96565b83811115610cc0576000848401525b50505050565b6000610cd182610c77565b610cdb8185610c82565b9350610ceb818560208601610c93565b610cf48161097f565b840191505092915050565b600060e082019050610d14600083018a610bbb565b610d216020830189610c68565b610d2e6040830188610c68565b610d3b6060830187610c68565b8181036080830152610d4d8186610cc6565b905081810360a0830152610d618185610cc6565b905081810360c0830152610d758184610cc6565b905098975050505050505050565b600060208284031215610d9957610d986108aa565b5b6000610da784828501610960565b91505092915050565b7f4e487b7100000000000000000000000000000000000000000000000000000000600052601160045260246000fd5b6000610dea82610bb1565b91507fffffffffffffffffffffffffffffffffffffffffffffffffffffffffffffffff8203610e1c57610e1b610db0565b5b600182019050919050565b7f4e487b7100000000000000000000000000000000000000000000000000000000600052602260045260246000fd5b60006002820490506001821680610e6e57607f821691505b602082108103610e8157610e80610e27565b5b5091905056fea264697066735822122079635b30d7c5d0744049645a93c17b8603841b217b95630c8657115f5fbe5cad64736f6c634300080d0033",
  "immutableReferences": {},
  "source": "pragma solidity >=0.4.22 <0.9.0;\r\n\r\nimport \"../helpers/BaseStorage.sol\";\r\n\r\ncontract UserStorage is BaseStorage {\r\n    mapping(uint256 => Profile) public profiles;\r\n    mapping(address => uint256) public addresses;\r\n    mapping(bytes32 => uint256) public usernames;\r\n    mapping(uint256 => address) public uidtoaddr;\r\n\r\n    struct Profile {\r\n        uint256 id;\r\n        bytes32 username;\r\n        bytes32 firstName;\r\n        bytes32 lastName;\r\n        string bio;\r\n        string gravatarEmail;\r\n        string profileHash;\r\n    }\r\n\r\n    uint256 latestUserId = 0;\r\n\r\n    function createUser(\r\n        address _address,\r\n        bytes32 _username,\r\n        bytes32 _firstName,\r\n        bytes32 _lastName,\r\n        string memory _bio,\r\n        string memory _gravatarEmail,\r\n        string memory _profileHash\r\n    ) public onlyController returns (uint256) {\r\n        latestUserId++;\r\n\r\n        profiles[latestUserId] = Profile(\r\n            latestUserId,\r\n            _username,\r\n            _firstName,\r\n            _lastName,\r\n            _bio,\r\n            _gravatarEmail,\r\n            _profileHash\r\n        );\r\n\r\n        addresses[_address] = latestUserId;\r\n        usernames[_username] = latestUserId;\r\n        uidtoaddr[latestUserId] = _address;\r\n\r\n        return latestUserId;\r\n    }\r\n}\r\n",
  "sourcePath": "U:\\Ethereum\\ethegram\\contracts\\users\\UserStorage.sol",
  "compiler": {
    "name": "solc",
    "version": "0.8.13+commit.abaa5c0e.Emscripten.clang"
  },
  "schemaVersion": "3.4.6",
  "updatedAt": "2022-05-25T09:44:59.710Z",
  "networkType": "ethereum",
  "devdoc": {
    "kind": "dev",
    "methods": {},
    "version": 1
  },
  "userdoc": {
    "kind": "user",
    "methods": {},
    "version": 1
  }
}