{
  "contractName": "UserController",
  "abi": [
    {
      "inputs": [],
      "name": "ownerAddr",
      "outputs": [
        {
          "internalType": "address",
          "name": "",
          "type": "address"
        }
      ],
      "stateMutability": "view",
      "type": "function",
      "constant": true
    },
    {
      "inputs": [
        {
          "internalType": "address",
          "name": "_managerAddr",
          "type": "address"
        }
      ],
      "name": "setManagerAddr",
      "outputs": [],
      "stateMutability": "nonpayable",
      "type": "function"
    },
    {
      "inputs": [
        {
          "internalType": "address",
          "name": "_newOwner",
          "type": "address"
        }
      ],
      "name": "transferOwnership",
      "outputs": [],
      "stateMutability": "nonpayable",
      "type": "function"
    },
    {
      "inputs": [
        {
          "internalType": "bytes32",
          "name": "_username",
          "type": "bytes32"
        },
        {
          "internalType": "bytes32",
          "name": "_firstName",
          "type": "bytes32"
        },
        {
          "internalType": "bytes32",
          "name": "_lastName",
          "type": "bytes32"
        },
        {
          "internalType": "string",
          "name": "_bio",
          "type": "string"
        },
        {
          "internalType": "string",
          "name": "_gravatarEmail",
          "type": "string"
        },
        {
          "internalType": "string",
          "name": "_profileHash",
          "type": "string"
        }
      ],
      "name": "createUser",
      "outputs": [
        {
          "internalType": "uint256",
          "name": "",
          "type": "uint256"
        }
      ],
      "stateMutability": "nonpayable",
      "type": "function"
    }
  ],
  "bytecode": "0x608060405234801561001057600080fd5b50336000806101000a81548173ffffffffffffffffffffffffffffffffffffffff021916908373ffffffffffffffffffffffffffffffffffffffff160217905550610a84806100606000396000f3fe608060405234801561001057600080fd5b506004361061004c5760003560e01c80637978b231146100515780639c675eaa1461006d578063f2fde38b1461008b578063f3c3aaff146100a7575b600080fd5b61006b60048036038101906100669190610529565b6100d7565b005b610075610173565b6040516100829190610565565b60405180910390f35b6100a560048036038101906100a09190610529565b610197565b005b6100c160048036038101906100bc91906106fc565b61026b565b6040516100ce91906107f6565b60405180910390f35b60008054906101000a900473ffffffffffffffffffffffffffffffffffffffff1673ffffffffffffffffffffffffffffffffffffffff163373ffffffffffffffffffffffffffffffffffffffff161461012f57600080fd5b80600160006101000a81548173ffffffffffffffffffffffffffffffffffffffff021916908373ffffffffffffffffffffffffffffffffffffffff16021790555050565b60008054906101000a900473ffffffffffffffffffffffffffffffffffffffff1681565b60008054906101000a900473ffffffffffffffffffffffffffffffffffffffff1673ffffffffffffffffffffffffffffffffffffffff163373ffffffffffffffffffffffffffffffffffffffff16146101ef57600080fd5b600073ffffffffffffffffffffffffffffffffffffffff168173ffffffffffffffffffffffffffffffffffffffff160361022857600080fd5b806000806101000a81548173ffffffffffffffffffffffffffffffffffffffff021916908373ffffffffffffffffffffffffffffffffffffffff16021790555050565b600080600160009054906101000a900473ffffffffffffffffffffffffffffffffffffffff16905060008173ffffffffffffffffffffffffffffffffffffffff1663bf40fac16040518163ffffffff1660e01b81526004016102cc9061086e565b602060405180830381865afa1580156102e9573d6000803e3d6000fd5b505050506040513d601f19601f8201168201806040525081019061030d91906108a3565b9050600081905060008173ffffffffffffffffffffffffffffffffffffffff166382d38954336040518263ffffffff1660e01b815260040161034f9190610565565b602060405180830381865afa15801561036c573d6000803e3d6000fd5b505050506040513d601f19601f8201168201806040525081019061039091906108fc565b1461039a57600080fd5b60008173ffffffffffffffffffffffffffffffffffffffff1663ec4d88d78c6040518263ffffffff1660e01b81526004016103d59190610938565b602060405180830381865afa1580156103f2573d6000803e3d6000fd5b505050506040513d601f19601f8201168201806040525081019061041691906108fc565b1461042057600080fd5b8073ffffffffffffffffffffffffffffffffffffffff16636ae2289c338c8c8c8c8c8c6040518863ffffffff1660e01b815260040161046597969594939291906109ca565b6020604051808303816000875af1158015610484573d6000803e3d6000fd5b505050506040513d601f19601f820116820180604052508101906104a891906108fc565b93505050509695505050505050565b6000604051905090565b600080fd5b600080fd5b600073ffffffffffffffffffffffffffffffffffffffff82169050919050565b60006104f6826104cb565b9050919050565b610506816104eb565b811461051157600080fd5b50565b600081359050610523816104fd565b92915050565b60006020828403121561053f5761053e6104c1565b5b600061054d84828501610514565b91505092915050565b61055f816104eb565b82525050565b600060208201905061057a6000830184610556565b92915050565b6000819050919050565b61059381610580565b811461059e57600080fd5b50565b6000813590506105b08161058a565b92915050565b600080fd5b600080fd5b6000601f19601f8301169050919050565b7f4e487b7100000000000000000000000000000000000000000000000000000000600052604160045260246000fd5b610609826105c0565b810181811067ffffffffffffffff82111715610628576106276105d1565b5b80604052505050565b600061063b6104b7565b90506106478282610600565b919050565b600067ffffffffffffffff821115610667576106666105d1565b5b610670826105c0565b9050602081019050919050565b82818337600083830152505050565b600061069f61069a8461064c565b610631565b9050828152602081018484840111156106bb576106ba6105bb565b5b6106c684828561067d565b509392505050565b600082601f8301126106e3576106e26105b6565b5b81356106f384826020860161068c565b91505092915050565b60008060008060008060c08789031215610719576107186104c1565b5b600061072789828a016105a1565b965050602061073889828a016105a1565b955050604061074989828a016105a1565b945050606087013567ffffffffffffffff81111561076a576107696104c6565b5b61077689828a016106ce565b935050608087013567ffffffffffffffff811115610797576107966104c6565b5b6107a389828a016106ce565b92505060a087013567ffffffffffffffff8111156107c4576107c36104c6565b5b6107d089828a016106ce565b9150509295509295509295565b6000819050919050565b6107f0816107dd565b82525050565b600060208201905061080b60008301846107e7565b92915050565b600082825260208201905092915050565b7f5573657253746f72616765000000000000000000000000000000000000000000600082015250565b6000610858600b83610811565b915061086382610822565b602082019050919050565b600060208201905081810360008301526108878161084b565b9050919050565b60008151905061089d816104fd565b92915050565b6000602082840312156108b9576108b86104c1565b5b60006108c78482850161088e565b91505092915050565b6108d9816107dd565b81146108e457600080fd5b50565b6000815190506108f6816108d0565b92915050565b600060208284031215610912576109116104c1565b5b6000610920848285016108e7565b91505092915050565b61093281610580565b82525050565b600060208201905061094d6000830184610929565b92915050565b600081519050919050565b60005b8381101561097c578082015181840152602081019050610961565b8381111561098b576000848401525b50505050565b600061099c82610953565b6109a68185610811565b93506109b681856020860161095e565b6109bf816105c0565b840191505092915050565b600060e0820190506109df600083018a610556565b6109ec6020830189610929565b6109f96040830188610929565b610a066060830187610929565b8181036080830152610a188186610991565b905081810360a0830152610a2c8185610991565b905081810360c0830152610a408184610991565b90509897505050505050505056fea2646970667358221220a2b70285b44f52a1020a68bcc962b0e81edbf34965546250819fbb86ca7cd18264736f6c634300080d0033",
  "immutableReferences": {},
  "source": "pragma solidity >=0.4.22 <0.9.0;\r\n\r\nimport \"../helpers/BaseController.sol\";\r\nimport \"../ContractManager.sol\";\r\nimport \"./UserStorage.sol\";\r\n\r\ncontract UserController is BaseController {\r\n    function createUser(\r\n        bytes32 _username,\r\n        bytes32 _firstName,\r\n        bytes32 _lastName,\r\n        string memory _bio,\r\n        string memory _gravatarEmail,\r\n        string memory _profileHash\r\n    ) public returns (uint256) {\r\n        ContractManager _manager = ContractManager(managerAddr);\r\n\r\n        address _userStorageAddr = _manager.getAddress(\"UserStorage\");\r\n        UserStorage _storage = UserStorage(_userStorageAddr);\r\n\r\n        require(_storage.addresses(msg.sender) == 0);\r\n        require(_storage.usernames(_username) == 0);\r\n\r\n        return\r\n            _storage.createUser(\r\n                msg.sender,\r\n                _username,\r\n                _firstName,\r\n                _lastName,\r\n                _bio,\r\n                _gravatarEmail,\r\n                _profileHash\r\n            );\r\n    }\r\n}\r\n",
  "sourcePath": "U:\\Ethereum\\ethegram\\contracts\\users\\UserController.sol",
  "compiler": {
    "name": "solc",
    "version": "0.8.13+commit.abaa5c0e.Emscripten.clang"
  },
  "schemaVersion": "3.4.6",
  "updatedAt": "2022-05-25T09:44:59.694Z",
  "networkType": "ethereum",
  "devdoc": {
    "kind": "dev",
    "methods": {},
    "version": 1
  },
  "userdoc": {
    "kind": "user",
    "methods": {},
    "version": 1
  }
}