{
  "contractName": "BaseController",
  "abi": [
    {
      "inputs": [],
      "name": "ownerAddr",
      "outputs": [
        {
          "internalType": "address",
          "name": "",
          "type": "address"
        }
      ],
      "stateMutability": "view",
      "type": "function"
    },
    {
      "inputs": [
        {
          "internalType": "address",
          "name": "_newOwner",
          "type": "address"
        }
      ],
      "name": "transferOwnership",
      "outputs": [],
      "stateMutability": "nonpayable",
      "type": "function"
    },
    {
      "inputs": [
        {
          "internalType": "address",
          "name": "_managerAddr",
          "type": "address"
        }
      ],
      "name": "setManagerAddr",
      "outputs": [],
      "stateMutability": "nonpayable",
      "type": "function"
    }
  ],
  "bytecode": "0x608060405234801561001057600080fd5b50336000806101000a81548173ffffffffffffffffffffffffffffffffffffffff021916908373ffffffffffffffffffffffffffffffffffffffff160217905550610320806100606000396000f3fe608060405234801561001057600080fd5b50600436106100415760003560e01c80637978b231146100465780639c675eaa14610062578063f2fde38b14610080575b600080fd5b610060600480360381019061005b9190610293565b61009c565b005b61006a610138565b60405161007791906102cf565b60405180910390f35b61009a60048036038101906100959190610293565b61015c565b005b60008054906101000a900473ffffffffffffffffffffffffffffffffffffffff1673ffffffffffffffffffffffffffffffffffffffff163373ffffffffffffffffffffffffffffffffffffffff16146100f457600080fd5b80600160006101000a81548173ffffffffffffffffffffffffffffffffffffffff021916908373ffffffffffffffffffffffffffffffffffffffff16021790555050565b60008054906101000a900473ffffffffffffffffffffffffffffffffffffffff1681565b60008054906101000a900473ffffffffffffffffffffffffffffffffffffffff1673ffffffffffffffffffffffffffffffffffffffff163373ffffffffffffffffffffffffffffffffffffffff16146101b457600080fd5b600073ffffffffffffffffffffffffffffffffffffffff168173ffffffffffffffffffffffffffffffffffffffff16036101ed57600080fd5b806000806101000a81548173ffffffffffffffffffffffffffffffffffffffff021916908373ffffffffffffffffffffffffffffffffffffffff16021790555050565b600080fd5b600073ffffffffffffffffffffffffffffffffffffffff82169050919050565b600061026082610235565b9050919050565b61027081610255565b811461027b57600080fd5b50565b60008135905061028d81610267565b92915050565b6000602082840312156102a9576102a8610230565b5b60006102b78482850161027e565b91505092915050565b6102c981610255565b82525050565b60006020820190506102e460008301846102c0565b9291505056fea26469706673582212208425e3c79626bb22c67c614e933a7885aede877dd53fe58274ff6e39bbe1b91164736f6c634300080d0033",
  "immutableReferences": {},
  "source": "pragma solidity >=0.4.22 <0.9.0;\r\n\r\nimport \"./Owned.sol\";\r\n\r\ncontract BaseController is Owned {\r\n    address managerAddr;\r\n\r\n    function setManagerAddr(address _managerAddr) public onlyOwner {\r\n        managerAddr = _managerAddr;\r\n    }\r\n}\r\n",
  "sourcePath": "U:\\Ethereum\\ethegram\\contracts\\helpers\\BaseController.sol",
  "compiler": {
    "name": "solc",
    "version": "0.8.13+commit.abaa5c0e.Emscripten.clang"
  },
  "schemaVersion": "3.4.6",
  "updatedAt": "2022-05-25T09:44:18.086Z",
  "devdoc": {
    "kind": "dev",
    "methods": {},
    "version": 1
  },
  "userdoc": {
    "kind": "user",
    "methods": {},
    "version": 1
  }
}