{
  "contractName": "Owned",
  "abi": [
    {
      "inputs": [],
      "stateMutability": "nonpayable",
      "type": "constructor"
    },
    {
      "inputs": [],
      "name": "ownerAddr",
      "outputs": [
        {
          "internalType": "address",
          "name": "",
          "type": "address"
        }
      ],
      "stateMutability": "view",
      "type": "function"
    },
    {
      "inputs": [
        {
          "internalType": "address",
          "name": "_newOwner",
          "type": "address"
        }
      ],
      "name": "transferOwnership",
      "outputs": [],
      "stateMutability": "nonpayable",
      "type": "function"
    }
  ],
  "bytecode": "0x608060405234801561001057600080fd5b50336000806101000a81548173ffffffffffffffffffffffffffffffffffffffff021916908373ffffffffffffffffffffffffffffffffffffffff16021790555061025d806100606000396000f3fe608060405234801561001057600080fd5b50600436106100365760003560e01c80639c675eaa1461003b578063f2fde38b14610059575b600080fd5b610043610075565b60405161005091906101ae565b60405180910390f35b610073600480360381019061006e91906101fa565b610099565b005b60008054906101000a900473ffffffffffffffffffffffffffffffffffffffff1681565b60008054906101000a900473ffffffffffffffffffffffffffffffffffffffff1673ffffffffffffffffffffffffffffffffffffffff163373ffffffffffffffffffffffffffffffffffffffff16146100f157600080fd5b600073ffffffffffffffffffffffffffffffffffffffff168173ffffffffffffffffffffffffffffffffffffffff160361012a57600080fd5b806000806101000a81548173ffffffffffffffffffffffffffffffffffffffff021916908373ffffffffffffffffffffffffffffffffffffffff16021790555050565b600073ffffffffffffffffffffffffffffffffffffffff82169050919050565b60006101988261016d565b9050919050565b6101a88161018d565b82525050565b60006020820190506101c3600083018461019f565b92915050565b600080fd5b6101d78161018d565b81146101e257600080fd5b50565b6000813590506101f4816101ce565b92915050565b6000602082840312156102105761020f6101c9565b5b600061021e848285016101e5565b9150509291505056fea2646970667358221220aa13ecbdd4c7aecb1fbb45ca5b1c30656ee58076d9ae82175e86e6309412f36164736f6c634300080d0033",
  "immutableReferences": {},
  "source": "pragma solidity >=0.4.22 <0.9.0;\r\n\r\ncontract Owned {\r\n    address public ownerAddr;\r\n\r\n    constructor() {\r\n        ownerAddr = msg.sender;\r\n    }\r\n\r\n    modifier onlyOwner() {\r\n        require(msg.sender == ownerAddr);\r\n        _;\r\n    }\r\n\r\n    function transferOwnership(address _newOwner) public onlyOwner {\r\n        require(_newOwner != address(0));\r\n\r\n        ownerAddr = _newOwner;\r\n    }\r\n}\r\n",
  "sourcePath": "U:\\Ethereum\\ethegram\\contracts\\helpers\\Owned.sol",
  "compiler": {
    "name": "solc",
    "version": "0.8.13+commit.abaa5c0e.Emscripten.clang"
  },
  "schemaVersion": "3.4.6",
  "updatedAt": "2022-05-25T09:44:18.120Z",
  "devdoc": {
    "kind": "dev",
    "methods": {},
    "version": 1
  },
  "userdoc": {
    "kind": "user",
    "methods": {},
    "version": 1
  }
}