{
  "contractName": "TweetStorage",
  "abi": [
    {
      "inputs": [],
      "name": "controllerAddr",
      "outputs": [
        {
          "internalType": "address",
          "name": "",
          "type": "address"
        }
      ],
      "stateMutability": "view",
      "type": "function",
      "constant": true
    },
    {
      "inputs": [],
      "name": "ownerAddr",
      "outputs": [
        {
          "internalType": "address",
          "name": "",
          "type": "address"
        }
      ],
      "stateMutability": "view",
      "type": "function",
      "constant": true
    },
    {
      "inputs": [
        {
          "internalType": "address",
          "name": "_controllerAddr",
          "type": "address"
        }
      ],
      "name": "setControllerAddr",
      "outputs": [],
      "stateMutability": "nonpayable",
      "type": "function"
    },
    {
      "inputs": [
        {
          "internalType": "address",
          "name": "_newOwner",
          "type": "address"
        }
      ],
      "name": "transferOwnership",
      "outputs": [],
      "stateMutability": "nonpayable",
      "type": "function"
    },
    {
      "inputs": [
        {
          "internalType": "uint256",
          "name": "",
          "type": "uint256"
        }
      ],
      "name": "tweetIds",
      "outputs": [
        {
          "internalType": "uint256",
          "name": "",
          "type": "uint256"
        }
      ],
      "stateMutability": "view",
      "type": "function",
      "constant": true
    },
    {
      "inputs": [
        {
          "internalType": "uint256",
          "name": "",
          "type": "uint256"
        }
      ],
      "name": "tweets",
      "outputs": [
        {
          "internalType": "uint256",
          "name": "id",
          "type": "uint256"
        },
        {
          "internalType": "string",
          "name": "text",
          "type": "string"
        },
        {
          "internalType": "uint256",
          "name": "userId",
          "type": "uint256"
        },
        {
          "internalType": "uint256",
          "name": "postedAt",
          "type": "uint256"
        },
        {
          "internalType": "string",
          "name": "postHash",
          "type": "string"
        },
        {
          "internalType": "uint256",
          "name": "tipAmount",
          "type": "uint256"
        }
      ],
      "stateMutability": "view",
      "type": "function",
      "constant": true
    },
    {
      "inputs": [
        {
          "internalType": "uint256",
          "name": "",
          "type": "uint256"
        },
        {
          "internalType": "uint256",
          "name": "",
          "type": "uint256"
        }
      ],
      "name": "userTweetIds",
      "outputs": [
        {
          "internalType": "uint256",
          "name": "",
          "type": "uint256"
        }
      ],
      "stateMutability": "view",
      "type": "function",
      "constant": true
    },
    {
      "inputs": [
        {
          "internalType": "uint256",
          "name": "_userId",
          "type": "uint256"
        },
        {
          "internalType": "string",
          "name": "_text",
          "type": "string"
        },
        {
          "internalType": "string",
          "name": "postHash",
          "type": "string"
        }
      ],
      "name": "createTweet",
      "outputs": [
        {
          "internalType": "uint256",
          "name": "",
          "type": "uint256"
        }
      ],
      "stateMutability": "nonpayable",
      "type": "function"
    },
    {
      "inputs": [
        {
          "internalType": "uint256",
          "name": "_userId",
          "type": "uint256"
        }
      ],
      "name": "getTweetIdsFromUser",
      "outputs": [
        {
          "internalType": "uint256[]",
          "name": "",
          "type": "uint256[]"
        }
      ],
      "stateMutability": "view",
      "type": "function",
      "constant": true
    },
    {
      "inputs": [],
      "name": "getNumTweets",
      "outputs": [
        {
          "internalType": "uint256",
          "name": "",
          "type": "uint256"
        }
      ],
      "stateMutability": "view",
      "type": "function",
      "constant": true
    },
    {
      "inputs": [
        {
          "internalType": "uint256",
          "name": "_id",
          "type": "uint256"
        },
        {
          "internalType": "address",
          "name": "_authorAddr",
          "type": "address"
        }
      ],
      "name": "tipPost",
      "outputs": [],
      "stateMutability": "payable",
      "type": "function",
      "payable": true
    }
  ],
  "bytecode": "0x6080604052600060055534801561001557600080fd5b50336000806101000a81548173ffffffffffffffffffffffffffffffffffffffff021916908373ffffffffffffffffffffffffffffffffffffffff160217905550611095806100656000396000f3fe60806040526004361061009c5760003560e01c806373c91c931161006457806373c91c931461019d5780639c675eaa146101da578063e8d857b014610205578063eb4fdc3f14610247578063ee255c5714610272578063f2fde38b1461029d5761009c565b806317edf66d146100a1578063317aae1b146100de5780633a2ad5fd1461011b5780636595c8bc146101585780636981fa7d14610174575b600080fd5b3480156100ad57600080fd5b506100c860048036038101906100c391906109fe565b6102c6565b6040516100d59190610a3a565b60405180910390f35b3480156100ea57600080fd5b50610105600480360381019061010091906109fe565b6102ea565b6040516101129190610b13565b60405180910390f35b34801561012757600080fd5b50610142600480360381019061013d9190610b35565b610355565b60405161014f9190610a3a565b60405180910390f35b610172600480360381019061016d9190610bd3565b610386565b005b34801561018057600080fd5b5061019b60048036038101906101969190610c13565b61046d565b005b3480156101a957600080fd5b506101c460048036038101906101bf9190610d86565b610509565b6040516101d19190610a3a565b60405180910390f35b3480156101e657600080fd5b506101ef61069a565b6040516101fc9190610e20565b60405180910390f35b34801561021157600080fd5b5061022c600480360381019061022791906109fe565b6106be565b60405161023e96959493929190610ec3565b60405180910390f35b34801561025357600080fd5b5061025c61080a565b6040516102699190610a3a565b60405180910390f35b34801561027e57600080fd5b50610287610817565b6040516102949190610e20565b60405180910390f35b3480156102a957600080fd5b506102c460048036038101906102bf9190610c13565b61083d565b005b600481815481106102d657600080fd5b906000526020600020016000915090505481565b60606003600083815260200190815260200160002080548060200260200160405190810160405280929190818152602001828054801561034957602002820191906000526020600020905b815481526020019060010190808311610335575b50505050509050919050565b6003602052816000526040600020818154811061037157600080fd5b90600052602060002001600091509150505481565b600160009054906101000a900473ffffffffffffffffffffffffffffffffffffffff1673ffffffffffffffffffffffffffffffffffffffff163373ffffffffffffffffffffffffffffffffffffffff16146103e057600080fd5b60008190508073ffffffffffffffffffffffffffffffffffffffff166108fc349081150290604051600060405180830381858888f1935050505015801561042b573d6000803e3d6000fd5b5034600260008581526020019081526020016000206005015461044e9190610f61565b6002600085815260200190815260200160002060050181905550505050565b60008054906101000a900473ffffffffffffffffffffffffffffffffffffffff1673ffffffffffffffffffffffffffffffffffffffff163373ffffffffffffffffffffffffffffffffffffffff16146104c557600080fd5b80600160006101000a81548173ffffffffffffffffffffffffffffffffffffffff021916908373ffffffffffffffffffffffffffffffffffffffff16021790555050565b6000600160009054906101000a900473ffffffffffffffffffffffffffffffffffffffff1673ffffffffffffffffffffffffffffffffffffffff163373ffffffffffffffffffffffffffffffffffffffff161461056557600080fd5b6005600081548092919061057890610fb7565b91905055506040518060c00160405280600554815260200184815260200185815260200142815260200183815260200160008152506002600060055481526020019081526020016000206000820151816000015560208201518160010190805190602001906105e8929190610911565b5060408201518160020155606082015181600301556080820151816004019080519060200190610619929190610911565b5060a082015181600501559050506003600085815260200190815260200160002060055490806001815401808255809150506001900390600052602060002001600090919091909150556004600554908060018154018082558091505060019003906000526020600020016000909190919091505560055490509392505050565b60008054906101000a900473ffffffffffffffffffffffffffffffffffffffff1681565b60026020528060005260406000206000915090508060000154908060010180546106e79061102e565b80601f01602080910402602001604051908101604052809291908181526020018280546107139061102e565b80156107605780601f1061073557610100808354040283529160200191610760565b820191906000526020600020905b81548152906001019060200180831161074357829003601f168201915b5050505050908060020154908060030154908060040180546107819061102e565b80601f01602080910402602001604051908101604052809291908181526020018280546107ad9061102e565b80156107fa5780601f106107cf576101008083540402835291602001916107fa565b820191906000526020600020905b8154815290600101906020018083116107dd57829003601f168201915b5050505050908060050154905086565b6000600480549050905090565b600160009054906101000a900473ffffffffffffffffffffffffffffffffffffffff1681565b60008054906101000a900473ffffffffffffffffffffffffffffffffffffffff1673ffffffffffffffffffffffffffffffffffffffff163373ffffffffffffffffffffffffffffffffffffffff161461089557600080fd5b600073ffffffffffffffffffffffffffffffffffffffff168173ffffffffffffffffffffffffffffffffffffffff16036108ce57600080fd5b806000806101000a81548173ffffffffffffffffffffffffffffffffffffffff021916908373ffffffffffffffffffffffffffffffffffffffff16021790555050565b82805461091d9061102e565b90600052602060002090601f01602090048101928261093f5760008555610986565b82601f1061095857805160ff1916838001178555610986565b82800160010185558215610986579182015b8281111561098557825182559160200191906001019061096a565b5b5090506109939190610997565b5090565b5b808211156109b0576000816000905550600101610998565b5090565b6000604051905090565b600080fd5b600080fd5b6000819050919050565b6109db816109c8565b81146109e657600080fd5b50565b6000813590506109f8816109d2565b92915050565b600060208284031215610a1457610a136109be565b5b6000610a22848285016109e9565b91505092915050565b610a34816109c8565b82525050565b6000602082019050610a4f6000830184610a2b565b92915050565b600081519050919050565b600082825260208201905092915050565b6000819050602082019050919050565b610a8a816109c8565b82525050565b6000610a9c8383610a81565b60208301905092915050565b6000602082019050919050565b6000610ac082610a55565b610aca8185610a60565b9350610ad583610a71565b8060005b83811015610b06578151610aed8882610a90565b9750610af883610aa8565b925050600181019050610ad9565b5085935050505092915050565b60006020820190508181036000830152610b2d8184610ab5565b905092915050565b60008060408385031215610b4c57610b4b6109be565b5b6000610b5a858286016109e9565b9250506020610b6b858286016109e9565b9150509250929050565b600073ffffffffffffffffffffffffffffffffffffffff82169050919050565b6000610ba082610b75565b9050919050565b610bb081610b95565b8114610bbb57600080fd5b50565b600081359050610bcd81610ba7565b92915050565b60008060408385031215610bea57610be96109be565b5b6000610bf8858286016109e9565b9250506020610c0985828601610bbe565b9150509250929050565b600060208284031215610c2957610c286109be565b5b6000610c3784828501610bbe565b91505092915050565b600080fd5b600080fd5b6000601f19601f8301169050919050565b7f4e487b7100000000000000000000000000000000000000000000000000000000600052604160045260246000fd5b610c9382610c4a565b810181811067ffffffffffffffff82111715610cb257610cb1610c5b565b5b80604052505050565b6000610cc56109b4565b9050610cd18282610c8a565b919050565b600067ffffffffffffffff821115610cf157610cf0610c5b565b5b610cfa82610c4a565b9050602081019050919050565b82818337600083830152505050565b6000610d29610d2484610cd6565b610cbb565b905082815260208101848484011115610d4557610d44610c45565b5b610d50848285610d07565b509392505050565b600082601f830112610d6d57610d6c610c40565b5b8135610d7d848260208601610d16565b91505092915050565b600080600060608486031215610d9f57610d9e6109be565b5b6000610dad868287016109e9565b935050602084013567ffffffffffffffff811115610dce57610dcd6109c3565b5b610dda86828701610d58565b925050604084013567ffffffffffffffff811115610dfb57610dfa6109c3565b5b610e0786828701610d58565b9150509250925092565b610e1a81610b95565b82525050565b6000602082019050610e356000830184610e11565b92915050565b600081519050919050565b600082825260208201905092915050565b60005b83811015610e75578082015181840152602081019050610e5a565b83811115610e84576000848401525b50505050565b6000610e9582610e3b565b610e9f8185610e46565b9350610eaf818560208601610e57565b610eb881610c4a565b840191505092915050565b600060c082019050610ed86000830189610a2b565b8181036020830152610eea8188610e8a565b9050610ef96040830187610a2b565b610f066060830186610a2b565b8181036080830152610f188185610e8a565b9050610f2760a0830184610a2b565b979650505050505050565b7f4e487b7100000000000000000000000000000000000000000000000000000000600052601160045260246000fd5b6000610f6c826109c8565b9150610f77836109c8565b9250827fffffffffffffffffffffffffffffffffffffffffffffffffffffffffffffffff03821115610fac57610fab610f32565b5b828201905092915050565b6000610fc2826109c8565b91507fffffffffffffffffffffffffffffffffffffffffffffffffffffffffffffffff8203610ff457610ff3610f32565b5b600182019050919050565b7f4e487b7100000000000000000000000000000000000000000000000000000000600052602260045260246000fd5b6000600282049050600182168061104657607f821691505b60208210810361105957611058610fff565b5b5091905056fea26469706673582212209f2b4b28b6dca089bb2dd6ee2391dd3fbf6bd4aa5cf4aa632c4610a832c2789764736f6c634300080d0033",
  "immutableReferences": {},
  "source": "pragma solidity >=0.4.22 <0.9.0;\r\n\r\nimport \"../helpers/BaseStorage.sol\";\r\n\r\ncontract TweetStorage is BaseStorage {\r\n    mapping(uint256 => Tweet) public tweets;\r\n    mapping(uint256 => uint256[]) public userTweetIds;\r\n    uint256[] public tweetIds;\r\n\r\n    struct Tweet {\r\n        uint256 id;\r\n        string text;\r\n        uint256 userId;\r\n        uint256 postedAt;\r\n        string postHash;\r\n        uint256 tipAmount;\r\n    }\r\n\r\n    uint256 latestTweetId = 0;\r\n\r\n    function createTweet(\r\n        uint256 _userId,\r\n        string memory _text,\r\n        string memory postHash\r\n    ) public onlyController returns (uint256) {\r\n        latestTweetId++;\r\n\r\n        tweets[latestTweetId] = Tweet(\r\n            latestTweetId,\r\n            _text,\r\n            _userId,\r\n            block.timestamp,\r\n            postHash,\r\n            0\r\n        );\r\n        userTweetIds[_userId].push(latestTweetId);\r\n        tweetIds.push(latestTweetId);\r\n\r\n        return latestTweetId;\r\n    }\r\n\r\n    function getTweetIdsFromUser(uint256 _userId)\r\n        public\r\n        view\r\n        returns (uint256[] memory)\r\n    {\r\n        return userTweetIds[_userId];\r\n    }\r\n\r\n    function getNumTweets() public view returns (uint256) {\r\n        return tweetIds.length;\r\n    }\r\n\r\n    function tipPost(uint256 _id, address _authorAddr)\r\n        public\r\n        payable\r\n        onlyController\r\n    {\r\n        address payable _author = payable(_authorAddr);\r\n        _author.transfer(msg.value);\r\n\r\n        tweets[_id].tipAmount = tweets[_id].tipAmount + msg.value;\r\n    }\r\n}\r\n",
  "sourcePath": "U:\\Ethereum\\ethegram\\contracts\\tweets\\TweetStorage.sol",
  "compiler": {
    "name": "solc",
    "version": "0.8.13+commit.abaa5c0e.Emscripten.clang"
  },
  "schemaVersion": "3.4.6",
  "updatedAt": "2022-05-25T09:45:04.605Z",
  "networkType": "ethereum",
  "devdoc": {
    "kind": "dev",
    "methods": {},
    "version": 1
  },
  "userdoc": {
    "kind": "user",
    "methods": {},
    "version": 1
  }
}